:100000000C9444010C946C010C946C010C946C01E4
:100010000C946C010C946C010C946C010C946C01AC
:100020000C946C010C946C010C946C010C946C019C
:100030000C946C010C946C010C946C010C946C018C
:100040000C94BE0C0C946C010C942E0D0C94080DA9
:100050000C946C010C946C010C946C010C946C016C
:100060000C946C010C946C0105A84CCDB2D44EB923
:100070003836A9020C50B9918688083CA6AAAA2A4B
:10008000BE000000803F0000211042206330844009
:10009000A550C660E770088129914AA16BB18CC157
:1000A000ADD1CEE1EFF13112100273325222B552CE
:1000B0009442F772D662399318837BB35AA3BDD3A7
:1000C0009CC3FFF3DEE36224433420040114E6649E
:1000D000C774A44485546AA54BB528850995EEE5F7
:1000E000CFF5ACC58DD55336722611163006D776AE
:1000F000F6669556B4465BB77AA719973887DFF747
:10010000FEE79DD7BCC7C448E5588668A778400875
:10011000611802282338CCC9EDD98EE9AFF9488996
:1001200069990AA92BB9F55AD44AB77A966A711A0D
:10013000500A333A122AFDDBDCCBBFFB9EEB799BE6
:10014000588B3BBB1AABA66C877CE44CC55C222C5D
:10015000033C600C411CAEED8FFDECCDCDDD2AAD36
:100160000BBD688D499D977EB66ED55EF44E133EED
:10017000322E511E700E9FFFBEEFDDDFFCCF1BBF86
:100180003AAF599F788F8891A981CAB1EBA10CD160
:100190002DC14EF16FE18010A100C230E320045068
:1001A000254046706760B9839893FBA3DAB33DC3DB
:1001B0001CD37FE35EF3B1029012F322D2323542B8
:1001C000145277625672EAB5CBA5A89589856EF56B
:1001D0004FE52CD50DC5E234C324A0148104667408
:1001E000476424540544DBA7FAB79987B8975FE7BB
:1001F0007EF71DC73CD7D326F2369106B016576658
:100200007676154634564CD96DC90EF92FE9C89942
:10021000E9898AB9ABA94458654806782768C018A7
:10022000E1088238A3287DCB5CDB3FEB1EFBF98B1A
:10023000D89BBBAB9ABB754A545A376A167AF10AF7
:10024000D01AB32A923A2EFD0FED6CDD4DCDAABD2A
:100250008BADE89DC98D267C076C645C454CA23C47
:10026000832CE01CC10C1FEF3EFF5DCF7CDF9BAFFA
:10027000BABFD98FF89F176E367E554E745E932E97
:10028000B23ED10EF01E600D11241FBECFEFD8E09C
:10029000DEBFCDBF11E0A0E0B1E0EEE8F9E202C0C0
:1002A00005900D92AE3FB107D9F725E0AEEFB1E072
:1002B00001C01D92AD33B207E1F711E0C4E4D1E013
:1002C00004C02197FE010E94AB14C334D107C9F7C3
:1002D0000E94050E0C94C5140C9400002FB7F894DE
:1002E00060913604709137048091380490913904FC
:1002F0002FBF0895E0910105F0910205309709F0B4
:10030000099460E070E0CB0108953FB7F8948091C4
:100310003A0490913B04A0913C04B0913D0426B571
:10032000A89B05C02F3F19F00196A11DB11D3FBF2D
:10033000BA2FA92F982F8827BC01CD01620F711DFC
:10034000811D911D42E0660F771F881F991F4A95F6
:10035000D1F70895EBE4F2E0138A128A158A148A21
:10036000118E108E138E128E178A168A0895AF92F0
:10037000BF92CF92DF92EF92FF920F931F93CF9392
:10038000DF936C017B018B01040F151FEB015E01F4
:10039000AE18BF08C017D10759F06991D601ED9189
:1003A000FC910190F081E02DC6010995892B79F728
:1003B000C501DF91CF911F910F91FF90EF90DF90DA
:1003C000CF90BF90AF900895FC01538D448D252FA1
:1003D00030E0842F90E0821B930B541710F0CF96DF
:1003E000089501970895FC01918D828D981761F011
:1003F000A28DAE0FBF2FB11D5D968C91928D9F5F28
:100400009F73928F90E008958FEF9FEF0895FC0106
:10041000918D828D981731F0828DE80FF11D858DB9
:1004200090E008958FEF9FEF0895FC01918D228D4C
:10043000892F90E0805C9F4F821B91098F739927D1
:1004400008958CE594E00E94150221E0892B09F4BF
:1004500020E0822F089580E090E0892B29F00E940F
:10046000210281110C9400000895FC01A48DA80FB5
:10047000B92FB11DA35ABF4F2C91848D90E00196E6
:100480008F739927848FA689B7892C93A089B18906
:100490008C91837080648C93938D848D981306C0A7
:1004A0000288F389E02D80818F7D80830895EF920B
:1004B000FF920F931F93CF93DF93EC0181E0888F1E
:1004C0009B8D8C8D98131AC0E889F989808185FFEE
:1004D00015C09FB7F894EE89FF896083E889F98990
:1004E00080818370806480839FBF81E090E0DF9192
:1004F000CF911F910F91FF90EF900895F62E0B8DE5
:1005000010E00F5F1F4F0F731127E02E8C8D8E119F
:100510000CC00FB607FCFACFE889F989808185FF06
:10052000F5CFCE010E943502F1CFEB8DEC0FFD2F00
:10053000F11DE35AFF4FF0829FB7F8940B8FEA89C1
:10054000FB8980818062CFCFCF93DF93EC01888DD0
:100550008823B9F0AA89BB89E889F9898C9185FD3E
:1005600003C0808186FD0DC00FB607FCF7CF8C91CC
:1005700085FFF2CF808185FFEDCFCE010E9435024D
:10058000E9CFDF91CF910895FC01E60FF11D918134
:10059000808108950F931F93CF93DF93FC01028115
:1005A000138164E0C8010E94C402EC0166E0C80146
:1005B0000E94C402B0E0A0E0772766276C0F7D1F81
:1005C000811D911DDF91CF911F910F910895209171
:1005D0003A022150330B8217130609F0E8F44091D8
:1005E0007C0250917D0220917B02EEE7F2E090E0E8
:1005F00030E0381739F02181920F3F5F42815381FB
:100600003996F7CF50937D0240937C0220937B0272
:1006100081E0FB019083089590E080E0FACFAC0187
:1006200030913A029091310420E0231759F096FF5F
:1006300005C04115510521F490689F7B2F5FF5CFD0
:100640009F77FBCF90933104089590913A028917D8
:1006500018F090E080E0089599E0989FF00111244F
:10066000E258FD4F8281238180937C0220937D029A
:10067000218120937B02621760F7680F699FC00198
:10068000112481589D4F0895F8947894F89490938C
:1006900042048093410478940895CF93DF9390911E
:1006A0003A02891728F090E080E0DF91CF91089519
:1006B000D9E0D89FF0011124E258FD4F2281338107
:1006C00030937D0220937C02918190937B02691785
:1006D00050F7C42F0E942503009729F3FC012081C5
:1006E000C21708F78181C80FCD9FC001112481581E
:1006F0009D4FDBCF1092370210923A0210923602D1
:10070000109232041092330410923404E0913802B3
:10071000F0913902EE0FFF1FEE0FFF1FE25EFE4F5A
:100720008081811110C0EEE7F2E0119283E0EE309B
:10073000F807D9F781E090E090933902809338026E
:100740008FEF90E0089589E290E008950F931F9352
:10075000CF93DF93F82FE92FC901002311F08FEF1A
:100760009FEFAF2FBE2F00E010E098010417150790
:100770002607370791F0ED91E927F0E0EE0FFF1F14
:10078000EA57FF4FC591D491982F88278C279D2732
:100790000F5F1F4F2F4F3F4FE9CFDF91CF911F9139
:1007A0000F910895E0E0F1E0408151816281738111
:1007B000DB014C93EEE3F4E0828511968C93828505
:1007C000938501969387828786899789A08DB18DBD
:1007D0000196A11DB11D868B978BA08FB18FF894C8
:1007E0004E5F5F4F8CE594E00E94B70178940895C6
:1007F000A0E0B1E01296ED91FC91139722E030E079
:100800002D933C9383838EEF82830C94D20362E01A
:10081000FC01828193810E94C402209146043091A0
:1008200047042230310519F482E10C94F8039091C9
:100830003A02891718F082E20E94F80381E2F5CFAC
:1008400080E00C94F80380E20C94F803E0E0F1E01F
:10085000A281B38181E090E0918380838FEF129633
:100860008C930C94D2038F3F910511F40C942604C1
:100870000C94F8030F931F93CF93DF9320914604BA
:10088000309147042230310539F482E1DF91CF9174
:100890001F910F910C94F803FC01C281D38162E097
:1008A000CE010E94C402E0913802F0913902EE0FAD
:1008B000FF1FEE0FFF1FE25EFE4F9381911140C0BC
:1008C0002D8130913702432F50E08A01020F111D14
:1008D00001311105C4F5EC8164E070E070933902D8
:1008E00060933802932FC9E0F3E0692F70E060173E
:1008F000710754F4C69FD001C79FB00D1124A258B0
:10090000BD4FFC939F5FF1CF99E0899FD0011124E7
:10091000A258BD4F12968C91E80F9E9FF0011124B2
:10092000E258FD4F538342832183230F20933702E4
:100930008FEF90E0DF91CF911F910F910C943304D2
:1009400089E290E0F7CF80E390E0F4CF1F93CF935C
:10095000DF9320914604309147042230310531F471
:1009600082E1DF91CF911F910C94F803FC01C281C9
:10097000D38162E0CE010E94C402E0913802F0917E
:100980003902EE0FFF1FEE0FFF1FE25EFE4F2281C6
:1009900021114BC02C8130913702632F70E0EB01A5
:1009A000C20FD11DC131D1050CF042C043E050E06F
:1009B0005093390240933802432F19E052E0A42F9C
:1009C000B0E0AC17BD0754F41A9FF0011B9FF00D67
:1009D0001124E258FD4F50834F5FF1CFAC015527F2
:1009E000A9E08A9FF0011124E258FD4F8181811115
:1009F00002C07383628389E0849FF001859FF00DBC
:100A00001124E258FD4F8181820F8183809136024B
:100A1000820F80933602230F209337028FEF90E0EE
:100A2000DF91CF911F910C94330489E290E0F8CFCD
:100A300080E390E0F5CF20914604309147042230C6
:100A4000310519F482E10C94F803FC0162E0828123
:100A500093810E94C402E0913802F0913902EE0FB6
:100A6000FF1FEE0FFF1FE25EFE4F918191112FC01D
:100A700090913702282F290F3327331FB9012131D5
:100A8000310544F522E030E03093390220933802FA
:100A9000292FA9E031E0422F50E0461757075CF4B8
:100AA000A49FF001A59FF00D1124E258FD4F308363
:100AB00011822F5FF0CF20913A02280F20933A0243
:100AC000980F909337028FEF90E00C94330489E2F3
:100AD00090E0FBCF80E390E0F8CF809146049091C6
:100AE0004704029719F482E10C94F8030E947A03F8
:100AF0000C9433048091460490914704029719F0B6
:100B000089E20C94F8030C9426040C947A058091E5
:100B1000460490914704029719F089E20C94F80377
:100B2000F894789481E090E0909347048093460491
:100B30000C9426042091460430914704223031055C
:100B400019F089E20C94F803DC011296ED91FC9106
:100B5000218180914C0490914D04A0914E04B0915C
:100B60004F04820F911DA11DB11D80934C049093E1
:100B70004D04A0934E04B0934F040C942604DC0162
:100B80001296ED91FC9181812091460430914704A9
:100B90002230310519F482E10C94F803843010F00E
:100BA00087E2FACF9EEF980F923030F481E090E028
:100BB0000E940F030C942604813049F490E080E0F9
:100BC0000E940F0384E090E00E944403F3CF81E091
:100BD00090E00E940F0383E090E0F6CF1F93CF9345
:100BE000DF93FC01C281D38162E0CE010E94C40286
:100BF000182F64E0CE010E94C4029C018091410440
:100C000090914204049731F481E1DF91CF911F91DB
:100C10000C94F8038091460490914704029711F4D4
:100C200082E1F3CF80913A02181710F082E2EDCF03
:100C3000998191FF02C081E2E8CF90FDFCCF8E81C7
:100C40008230A0F72330310520F42E5C3B4FF901B0
:100C500010838091310494FF12C0806195FF11C010
:100C60008C7F806296FF0FC0806497FF0EC0806803
:100C700080933104DF91CF911F910C9426048F7ED5
:100C8000EDCF8C7DEFCF8F7BF0CF8F77F1CFCF92F1
:100C9000DF92EF92FF92CF93DF93EC010E94CA02A2
:100CA0006B017C018091410490914204049749F4C6
:100CB00081E1DF91CF91FF90EF90DF90CF900C9486
:100CC000F8038091460490914704029711F482E161
:100CD000F0CFEA81FB81C281F89478944091450479
:100CE00060914404809143040E944D03009791F069
:100CF0004C2F50E070E060E0FC0144835583668334
:100D00007783C082D182E282F382809145048F5F33
:100D100080934504DF91CF91FF90EF90DF90CF90CB
:100D20000C942604EF92FF920F931F93CF93209180
:100D30004104309142042430310541F481E1CF91E6
:100D40001F910F91FF90EF900C94F80320914604AF
:100D5000309147042230310511F482E1F0CFFC01DB
:100D6000E280F38062E0C7010E94C4028C019C0112
:100D7000332780913A028150990B8217930768F1CB
:100D8000F701C481F58089E0829FF001839FF00D17
:100D90001124E258FD4F8281938190937D028093CC
:100DA0007C02818180937B02C817B8F46C2F802F5E
:100DB0000E942503FC018081F81678F4F894789459
:100DC00000934304C0934404F0924504CF911F91D3
:100DD0000F91FF90EF900C94260482E2B0CF8091A7
:100DE000460490914704029719F482E10C94F803A9
:100DF0000C9426040F931F93CF93DF93DC0112967C
:100E00000D911C9162E0C8010E94C402EC0164E0F3
:100E1000C8010E94C402E0914C04F0914D04D80135
:100E200011962C91AE0140955095022E02C0440FB0
:100E3000551F0A94E2F770E060E040955095609588
:100E4000709502C0880F991F2A95E2F7B0E0A0E0E4
:100E500084279527A627B727408151816281738116
:100E600084239523A623B72380839183A283B3830E
:100E7000DF91CF911F910F910C942604CF93DF93B4
:100E8000DC011296ED91FC912381CEE3D4E02D8715
:100E90000E94CA026E877F87888B998BDF91CF91E2
:100EA0000C9426041F93CF93DF931F92CDB7DEB728
:100EB000FC0182819381FC011181198262E00E9410
:100EC000C40220914604309147042230310541F498
:100ED00082E10E94F8030F90DF91CF911F91089556
:100EE00090913A02891710F082E2F3CF133010F09C
:100EF00087E2EFCF9091310411111FC09F7790933B
:100F00003104BE016F5F7F4F0E94E7028981E0914B
:100F10000201F091030128E030E0309301012093B9
:100F2000000111861086178216821582148283832F
:100F30008FEF82830E94D203CECF113011F49068DC
:100F4000DECF9064DCCFDC011296ED91FC918281C2
:100F5000803218F088E20C94F8039181923010F0FE
:100F600087E2F9CF880FE0910201F091030128E0B8
:100F700030E0309301012093000111861086178222
:100F80001682158291E0980F948383838FEF82837A
:100F90000C94D203A0E0B1E01296ED91FC9113976E
:100FA00083E090E08D939C9380E2848381E083834F
:100FB0008FEF82830C94D20380914104909142047C
:100FC000049719F481E10C94F803F894789482E082
:100FD00090E09093470480934604E0910201F091E1
:100FE000030187E090E09093010180930001108657
:100FF0001782168280E18583148213828FEF8283A9
:101000000C94D20362E0FC01828193810E94C402AD
:101010009C01039718F082E20C94F80386E0829F0B
:10102000F001839FF00D1124E45FFE4F4081518158
:1010300090E04115510589F09281992371F0109249
:101040004B04052E000C660B770B40934C04509319
:101050004D0460934E0470934F0486E0829FF0012C
:10106000839FF00D1124E45FFE4F3481258183813D
:10107000E0910201F091030147E050E0509301013B
:1010800040930001108637832683958391E09483F3
:1010900083838FEF82830C94D203809146049091D6
:1010A0004704029719F482E10C94F803E0910201DD
:1010B000F091030188E090E090930101809300019A
:1010C000118681E0808794E397839FE096838583F0
:1010D000948383838FEF82830C94D2030F931F93A7
:1010E0008091460490914704029729F482E11F9170
:1010F0000F910C94F8030E9485018C01222733275D
:10110000E0910201F091030148E050E050930101A9
:1011100040930001118700877783668315821482CC
:1011200013828FEF82831F910F910C94D2038091D1
:10113000460490914704029719F482E10C94F80355
:1011400080913A02E0910201F091030128E030E041
:10115000309301012093000111861086178293E0DD
:1011600096831582848383E183838FEF82830C943B
:10117000D20362E0FC01828193810E94C40220912B
:101180004604309147042230310519F482E10C9471
:10119000F80390913A02891710F082E2F8CF80911B
:1011A0003104E0910201F091030128E030E0309336
:1011B000010120930001118691E090871782168229
:1011C0001582148283838FEF82830C94D203A0E074
:1011D000B1E01296ED91FC91139728E030E02D9349
:1011E0003C9311861086978386831582148288E04B
:1011F00083838FEF82830C94D2030F930E94CA02E1
:10120000AB01BC018091460490914704029721F400
:1012100082E10F910C94F80380914C0490914D045D
:10122000413451056105710540F401E030E020E0F2
:101230000E94A6030F910C94E708F89420916E0287
:1012400030916F02232B21F420913F04222319F0C7
:1012500078940F910895F89421E020933F047894B6
:1012600021E030E030936F0220936E02092E000CD3
:10127000AA0BBB0B8093710290937202A09373022E
:10128000B093740240937502509376026093770294
:1012900070937802DDCFDC011296ED91FC91818193
:1012A000882321F0813081F180E019C088EB91E042
:1012B000909335028093340281E240913402509140
:1012C0003502052E000C660B770B10924B044093F1
:1012D0004C0450934D0460934E0470934F04E0917E
:1012E0000201F091030128E030E0309301012093E6
:1012F000000111861086178286831582148213825C
:101300008FEF82830C94D2038AED91E090933502A3
:101310008093340289E1D1CFA0E0B1E01296ED9143
:10132000FC91139788E090E08D939C938AE08187ED
:10133000108617828FEF8683158214821382828330
:101340000C94D203A0E0B1E01296ED91FC911397BA
:1013500086E090E08D939C9317821682158214820A
:1013600013828FEF82830C94D20380913E0481110B
:1013700003C081E080933E04E0910201F0910301FB
:1013800088E090E0909301018093000181E08187E3
:101390008087178280E18683858380E8848385E166
:1013A00083838FEF82830C94D203E0910A01F09142
:1013B0000B0180913E04882309F440C080913F04D2
:1013C0008823B1F08091580490915904A0915A0457
:1013D000B0915B040196A11DB11D809358049093B8
:1013E0005904A0935A04B0935B0480E10C94F80371
:1013F00020818091500490915104A0915204B091A9
:1014000053040196A11DB11D809350049093510483
:10141000A0935204B0935304263C10F480E2E6CF2C
:10142000EFEFF0E0E21BF109EE0FFF1FEE5CFE4F65
:101430000190F081E02D88E091E0099480915004C2
:1014400090915104A0915204B09153040196A11DB2
:10145000B11D8093500490935104A0935204B09313
:10146000530480818F3F21F488E091E00C94B5090A
:101470000895CF92DF92EF92FF92CF93DF93EC012A
:101480002C813D814E815F81688179818A819B8138
:101490000E946E126B017C0120E030E040E85FE3C7
:1014A0000E94AC1387FF15C0C882D982EA82FB82F2
:1014B0008C859D858130910591F1C0F08230910538
:1014C00009F461C0039709F46FC060E070E0CB01DC
:1014D00019C020E030E040E85FE3C701B6010E9498
:1014E0006D12688379838A839B83E2CF2BED3FE083
:1014F00049EC50E4688179818A819B810E94B11313
:101500000E941E14288539854A855B850E94B11387
:10151000DF91CF91FF90EF90DF90CF900895C8803A
:10152000D980EA80FB8020E030E040E05FE3C70143
:10153000B6010E946E120E94DF129B01AC01C7012E
:10154000B6010E946D129B01AC010E946E126B01EC
:101550007C0120E030E0A9010E94AC1318166CF465
:10156000A7019601C701B6010E946E1220E030E08B
:1015700040E85FE30E946D12C5CFC701B6019058E5
:101580009B01AC01F1CF20E030E040E05FE36881F7
:1015900079818A819B810E94DA1287FD14C060E004
:1015A00070E080E89FEBAECF20E030E040E05FE30A
:1015B000688179818A819B810E946D129B01AC01B7
:1015C0000E946E129FCF60E070E080E89FE39ACFA8
:1015D0008FE295E00E94390A6093470270934802B7
:1015E0008093490290934A0281E295E00E94390A71
:1015F00060934302709344028093450290934602A5
:1016000083E195E00E94390A60933F0270934002A3
:10161000809341029093420260913B0270913C02A0
:1016200080913D0290913E022DEC3CEC4CE45DE358
:101630000E946E1260933B0270933C0280933D02C5
:1016400090933E020895CF92DF92EF92FF9200971F
:1016500011F40E94C01461157105D9F321153105EB
:101660004105510589F0DB01FC01C12CD12C76012B
:101670008D9181938FEFC81AD80AE80AF80A2C15C1
:101680003D054E055F05A1F7FF90EF90DF90CF90ED
:101690000895CF92DF92EF92FF920F931F93CF9313
:1016A000FC0102811381F801C1810E94CA02CB01B1
:1016B00020914604309147042230310551F482E1F3
:1016C000CF911F910F91FF90EF90DF90CF900C94EE
:1016D000F803C93010F082E2F3CFCC2ED12CF12CDC
:1016E000E12CB801685F7F4FA70196010E94230B90
:1016F00080914C0490914D04A0914E04B0914F0400
:101700008C0D9D1DAE1DBF1D80934C0490934D0408
:10171000A0934E04B0934F04CF911F910F91FF906F
:10172000EF90DF90CF900C942604CF92DF92EF924F
:10173000FF92DC011296ED91FC918181209146048B
:10174000309147042230310539F482E1FF90EF9067
:10175000DF90CF900C94F8038F3010F082E2F6CF38
:10176000C82ED12CF12CE12CBF016E5F7F4FA70159
:10177000960180914C0490914D040E94230B80911E
:101780004C0490914D04A0914E04B0914F048C0DE7
:101790009D1DAE1DBF1D80934C0490934D04A093DE
:1017A0004E04B0934F04FF90EF90DF90CF900C94D5
:1017B000260420914604309147042230310519F463
:1017C00082E10C94F803FC01628173816F5F7F4FAB
:1017D0002FE030E040E050E080914C0490914D04C7
:1017E0000E94230B80914C0490914D04A0914E04D3
:1017F000B0914F040F96A11DB11D80934C0490939E
:101800004D04A0934E04B0934F040C9426048F9281
:101810009F92AF92BF92EF92FF920F931F93CF933D
:10182000C82F80E0E82E81E0F82EF70182819381B5
:101830002FEFFC0122838C2E912CB12CA12C0EE3D6
:1018400014E0F80166857785A501940103960E944E
:10185000230BF80186859785A089B189880E991E8A
:10186000AA1EBB1E86869786A08AB18A8C2F90E01E
:101870000196F70191838083CF911F910F91FF9083
:10188000EF90BF90AF909F908F900C94D203CF9326
:10189000DC011296ED91FC91C181209146043091BA
:1018A00047042230310521F482E1CF910C94F803F2
:1018B000C03110F082E2F9CF238120934B040E94C3
:1018C000CA0260934C0470934D0480934E0490932D
:1018D0004F048C2FCF910C94070CDC011296ED91E4
:1018E000FC918181209146043091470422303105DA
:1018F00019F482E10C94F803803110F082E2FACFFF
:101900000C94070C81E090E00E940F0383E090E0CC
:101910000E944403F8947894109243041092440473
:101920001092450410923204109233041092340441
:1019300010923902109238020E947A0310922F04FA
:1019400010922E0410923004EEE0F3E080E19F014B
:101950002E5E3F4F11922E173F07E1F78150B9F7E6
:1019600008958091460490914704029719F482E10A
:101970000C94F8030E9426040C94820C1F920F9280
:101980000FB60F9211242F933F938F939F93AF9392
:10199000BF938091360490913704A0913804B091A0
:1019A00039043091350423E0230F2D3758F5019683
:1019B000A11DB11D20933504809336049093370404
:1019C000A0933804B093390480913A0490913B0479
:1019D000A0913C04B0913D040196A11DB11D8093DE
:1019E0003A0490933B04A0933C04B0933D04BF9110
:1019F000AF919F918F913F912F910F900FBE0F90BC
:101A00001F90189526E8230F0296A11DB11DD2CF75
:101A10001F920F920FB60F9211242F933F934F9363
:101A20005F936F937F938F939F93AF93BF93EF9346
:101A3000FF938CE594E00E943502FF91EF91BF91F6
:101A4000AF919F918F917F916F915F914F913F9156
:101A50002F910F900FBE0F901F9018951F920F920D
:101A60000FB60F9211242F938F939F93EF93FF93B1
:101A7000E0916C04F0916D048081E0917204F0912A
:101A8000730482FD1BC09081809175048F5F8F73FA
:101A900020917604821741F0E0917504F0E0E45A59
:101AA000FB4F958F80937504FF91EF919F918F91DC
:101AB0002F910F900FBE0F901F9018958081F4CF3B
:101AC000CF93DF93ECE5F4E01382128288EE93E08B
:101AD000A0E0B0E084839583A683B7838AEA91E08F
:101AE0009183808385EC90E09587848784EC90E0F7
:101AF0009787868780EC90E0918B808B81EC90E0DB
:101B0000938B828B82EC90E0958B848B86EC90E0BB
:101B1000978B868B118E128E138E148EEFE2F5E06A
:101B200010821182128213828AE097EDA3E2BEE353
:101B300084839583A683B78340E050E060E072E43D
:101B4000408751876287738715861486E1E2F5E046
:101B500040E050E064EB72E440835183628373831E
:101B600084839583A683B7838FEE9BE3A5EBB1E4D3
:101B700080879187A287B38715861486E3E1F5E015
:101B800010821182128213828DEC9CECACECBDE3CE
:101B900084839583A683B7838EEC9DE4A0E8B1E4AB
:101BA00080879187A287B38781E090E095878487BB
:101BB000C9EFD4E08AE090E0A0E0B0E088839983A8
:101BC000AA83BB831D821C8288EE9AE09F838E834A
:101BD0008EE691E0998788871A861B861C861D866B
:101BE0001E861F86188A198A1A8A1B8A1C8A1D8AD1
:101BF0001E8A1F8A188E198E0E947A016A877B8737
:101C00008C879D87DF91CF910895CF93DF93CDB7D8
:101C1000DEB7A6970FB6F894DEBF0FBECDBF78949F
:101C200084B5826084BD84B5816084BD85B58260E1
:101C300085BD85B5816085BD80916E008160809392
:101C40006E001092810080918100826080938100FB
:101C5000809181008160809381008091800081600B
:101C6000809380008091B10084608093B100809166
:101C7000B00081608093B00080917A00846080938E
:101C80007A0080917A00826080937A0080917A0055
:101C9000816080937A0080917A00806880937A00D6
:101CA0001092C1001092470210924802109249020D
:101CB00010924A021092430210924402109245027E
:101CC0001092460210923F0210924002109241027E
:101CD0001092420210923B0210923C0210923D027E
:101CE00010923E020E946E01EEE3F4E0119224E0B5
:101CF000EC35F207D9F710923F040E94820C109243
:101D0000470410924604109249041092480410921D
:101D100058041092590410925A0410925B041092C5
:101D200054041092550410925604109257041092C5
:101D30005004109251041092520410925304E091F6
:101D40006C04F0916D0482E08083E0916804F0916E
:101D500069041082E0916A04F0916B0483E380834C
:101D600010927404E0917004F091710486E0808315
:101D7000E0916E04F0916F04808180618083E09136
:101D80006E04F0916F04808188608083E0916E041E
:101D9000F0916F04808180688083E0916E04F091FF
:101DA0006F0480818F7D80830E94AA0184E690E089
:101DB000A0E0B0E08093690290936A02A0936B0266
:101DC000B0936C0210926D028AEA91E090936802DF
:101DD0008093670210927102109272021092730245
:101DE000109274021092700210927A02109279028C
:101DF0001092750210927602109277021092780279
:101E000010926F0210926E02CE0101967C01FE01CB
:101E100071964F018CE594E00E9415022C01990FF8
:101E200066087708411451046104710449F10DE416
:101E300012E032E0C32ED12CAA24A394B12C332477
:101E400033948CE594E00E9415021816190694F458
:101E50008CE594E00E94F301F89420915F023091A8
:101E600060022231310508F447C10E94AA01109294
:101E70006D027894F1E04F1A51086108710809F772
:101E800080916D028823D1F00E946E010091690259
:101E900010916A0220916B0230916C02601B710BF1
:101EA000820B930B061717072807390738F4E091C0
:101EB0006702F0916802309709F0099580916E02EF
:101EC00090916F02009709F441C08130910509F0AB
:101ED000A9C140907102509072026090730270909C
:101EE000740201E030E020E040E450E060E070E0A7
:101EF000C2010E94A60390937A0280937902809196
:101F0000750290917602A0917702B0917802805488
:101F10009109A109B1098093750290937602A0936B
:101F20007702B093780220E4420E511C611C711CB0
:101F30004092710250927202609273027092740227
:101F400082E090E090936F0280936E020E947A018B
:101F500000910305109104052091050530910605B7
:101F60002B013C01401A510A620A730A2091F904BC
:101F70003091FA044091FB045091FC04A8EEB3E0C8
:101F80000E94A014461657066806790608F498C2FF
:101F90000E947A0160930305709304058093050500
:101FA000909306050E947A0160930B0570930C05CF
:101FB00080930D0590930E05E091FF04F0910005CC
:101FC000309709F009950091FD041091FE041DA2BF
:101FD00080E1F70111928A95E9F719A21AA21BA2D2
:101FE0001CA20E94850169A37AA38BA39CA3F894E9
:101FF00078948091410490914204049709F02CC296
:10200000033008F029C2D0903104D7FE25C2112731
:10201000F801EE5CFB4FC080BE016B5D7F4F8C2DE5
:102020000E94E702882309F417C229E0C29EF0014A
:102030001124E258FD4F8281938190937D02809319
:102040007C02818180937B028D2D80718EA3D12CA7
:1020500022E1722E80917B02D81608F097C16D2D77
:102060008C2D0E9425035C018DA18983D11049C16B
:102070009EA1992309F445C124E030E040E050E0FE
:10208000BE016F5D7F4FCE0102960E94230B05E0DB
:1020900010E0612CF5018081681608F045C1462DDD
:1020A0006D2D8C2D0E944D03FC01892B09F02CC154
:1020B000F40128E011922A95E9F769897A898B89D8
:1020C0009C892D883E884F88588C20E130E0201B69
:1020D000310B50E040E0221533054405550508F466
:1020E000BBC1A2019101C701800F911F0E94230B68
:1020F000020D131D6394CECFF901E55BFD4F808384
:1021000080915D0290915E02009709F5B0925E02A7
:10211000A0925D020E946E016093690270936A0250
:1021200080936B0290936C0230926D0280915D02FD
:1021300090915E02892B09F49CCE80915F02909170
:10214000600201969093600280935F0292CE81308C
:102150009105E1F52130310581F780914B0290E046
:102160009093640280936302D0925E02C0925D02FB
:10217000909362028093610280914C0290E0909370
:102180006602809365020E946E01609369027093FB
:102190006A0280936B0290936C028091610290912D
:1021A0006202892B19F680916302909164029093E8
:1021B00009018093080110930B0100930A010E940A
:1021C000AA0110926D020E94D50953CE029709F020
:1021D000B4CF0E946E016093690270936A0280938B
:1021E0006B0290936C028091610290916202019760
:1021F0009093620280936102892B09F097CF8091BE
:1022000063029091640290930901809308011093F6
:102210000B0100930A010E94AA0110926D020E9414
:10222000D50984CF8230910509F042C040907102F7
:102230005090720260907302709074022091790243
:1022400030917A0200E040E450E060E070E0C201CA
:102250000E94A60390937A0280937902809175027E
:1022600090917602A0917702B09178028054910902
:10227000A109B1098093750290937602A093770229
:10228000B0937802E0E44E0E511C611C711C409228
:1022900071025092720260927302709274028134E1
:1022A0009105A105B10508F051CE83E090E04ACE3A
:1022B000039709F04BCE2091790230917A02409138
:1022C000750250917602609177027091780200E079
:1022D00080917102909172020E94A60390937A02FB
:1022E00080937902F89410923F0478948091790257
:1022F00090917A020E94E70810926F0210926E028B
:1023000025CE01E010E0C5CE98E0DE01599601909F
:102310000D929A95E1F788E0FE017996D40101903B
:102320000D928A95E1F7C9CE8DA18F5F8DA3809123
:102330002E04282F30E059019FEFA91AB90AEFE0C7
:10234000AE22BB2490912F049A151B0429F4F1E0CE
:10235000F0933004D3947ECE729EF001739EF00D04
:102360001124E25FFC4F118300830131110590F7C6
:10237000980150E040E0879DC0011124B701805FC3
:102380009C4F0E94230BA0922E04E4CFA090060144
:10239000B090070122E0A20EB11C82E1682E92E10A
:1023A000792E80912E0460912F04C62ED12C6C9C26
:1023B000F0016D9CF00D1124E25FFC4F861709F4CB
:1023C0004BC00081118101311105C0F7980150E027
:1023D00040E0679DB0011124605F7C4FC5010E9401
:1023E000230B8FEFC81AD80A9FE0C922DD24C092C0
:1023F0002F04109305010093040160910601709170
:102400000701FB0100838091480481838091480487
:1024100090914904019690934904809348048091D7
:10242000540490915504A0915604B091570401961C
:10243000A11DB11D8093540490935504A09356049C
:10244000B0935704F894A8014E5F5F4F8CE594E079
:102450000E94B7017894A5CF0E947A0160930F057E
:1024600070931005809311059093120500910B0550
:1024700010910C0520910D0530910E05DC01CB016A
:10248000801B910BA20BB30B80930705909308055B
:10249000A0930905B0930A05009103051091040566
:1024A0002091050530910605081B190B2A0B3B0BE3
:1024B000009303051093040520930505309306054A
:1024C00080E090E0892B09F4A5CC0E9421028823AA
:1024D00009F4A0CC0E9400009DCC5058BB27AA272D
:1024E0000E9485120C945A130E944C1338F00E94DB
:1024F000531320F039F49F3F19F426F40C94491338
:102500000EF4E095E7FB0C941A13E92F0E946B136D
:1025100058F3BA17620773078407950720F079F418
:10252000A6F50C94A5130EF4E0950B2EBA2FA02D52
:102530000B01B90190010C01CA01A0011124FF2770
:10254000591B99F0593F50F4503E68F11A16F0406B
:10255000A22F232F342F4427585FF3CF469537956A
:102560002795A795F0405395C9F77EF41F16BA0B2F
:10257000620B730B840BBAF09150A1F0FF0FBB1FDD
:10258000661F771F881FC2F70EC0BA0F621F731F26
:10259000841F48F4879577956795B795F7959E3F83
:1025A00008F0B0CF9395880F08F09927EE0F979514
:1025B000879508950E94F61208F481E008950E941C
:1025C0008D1390F09F3748F4911116F00C94A613D8
:1025D00060E070E080E89FEB089526F41B16611D13
:1025E000711D811D0C9420130C943B13990F00084E
:1025F000550FAA0BE0E8FEEF16161706E807F907D5
:10260000C0F012161306E407F50798F0621B730B6F
:10261000840B950B39F40A2661F0232B242B252BF0
:1026200021F408950A2609F4A140A6958FEF811D93
:10263000811D089597F99F6780E870E060E0089534
:10264000882371F4772321F09850872B762F07C0C9
:10265000662311F499270DC09051862B70E060E03D
:102660002AF09A95660F771F881FDAF7880F9695DC
:10267000879597F908959F3F31F0915020F4879501
:1026800077956795B795880F911D9695879597F9DA
:1026900008959FEF80EC089500240A9416161706FB
:1026A00018060906089500240A9412161306140643
:1026B00005060895092E0394000C11F4882352F0A6
:1026C000BB0F40F4BF2B11F460FF04C06F5F7F4F5E
:1026D0008F4F9F4F089557FD9058440F551F59F045
:1026E0005F3F71F04795880F97FB991F61F09F3FFF
:1026F00079F087950895121613061406551FF2CF28
:102700004695F1DF08C0161617061806991FF1CF77
:10271000869571056105089408950E947313A0F0D1
:10272000BEE7B91788F4BB279F3860F41616B11DB1
:10273000672F782F8827985FF7CF869577956795CD
:10274000B11D93959639C8F30895E894BB27662781
:102750007727CB0197F908950E94F61208F48FEFBE
:1027600008950E94C4130C945A130E944C1338F01D
:102770000E94531320F0952311F00C941A130C941B
:10278000491311240C94A6130E946B1370F3959FA8
:10279000C1F3950F50E0551F629FF001729FBB2758
:1027A000F00DB11D639FAA27F00DB11DAA1F649FF4
:1027B0006627B00DA11D661F829F2227B00DA11DA7
:1027C000621F739FB00DA11D621F839FA00D611D2D
:1027D000221F749F3327A00D611D231F849F600D4E
:1027E000211D822F762F6A2F11249F5750409AF077
:1027F000F1F088234AF0EE0FFF1FBB1F661F771F03
:10280000881F91505040A9F79E3F510580F00C94CD
:102810001A130C94A6135F3FE4F3983ED4F3869505
:1028200077956795B795F795E7959F5FC1F7FE2B6D
:10283000880F911D9695879597F908959F930E940B
:1028400028140F9007FCEE5F0C9451140C9449135C
:102850000E947313D8F3E894E0E0BB279F57F0F091
:102860002AED3FE049EC06C0EE0FBB0F661F771F55
:10287000881F28F0B23A62077307840728F0B25A1B
:10288000620B730B840BE3959A9572F7803830F4E2
:102890009A95BB0F661F771F881FD2F790480C943C
:1028A0003D13EF93E0FF07C0A2EA2AED3FE049ECB9
:1028B0005FEB0E9485120E945A130F90039401FC53
:1028C0009058E8E6F0E00C9465149F938F937F9303
:1028D0006F93FF93EF939B01AC010E94B113EF91B3
:1028E000FF910E9479142F913F914F915F910C9429
:1028F000B113DF93CF931F930F93FF92EF92DF9269
:102900007B018C01689406C0DA2EEF010E94C4138B
:10291000FE01E894A5912591359145915591A6F335
:10292000EF010E948512FE019701A801DA9469F770
:10293000DF90EF90FF900F911F91CF91DF9108955D
:102940000E94B114A59F900DB49F900DA49F800D7F
:10295000911D11240895EE0FFF1F0590F491E02DB5
:102960000994A29FB001B39FC001A39F700D811D68
:102970001124911DB29F700D811D1124911D089588
:0E29800081E090E0F8940C94C514F894FFCF19
:10298E000000FE010000100200002202F4010844C3
:10299E00060F000000000000000000000000000113
:1029AE000101000001010000000100010000000112
:1029BE000100B509B10CA20920048C094B092304AE
:1029CE00230423043E076D0C470CFD082304230447
:1029DE00950B2304D90B490BFA0623042304230475
:1029EE0023042304230423042304EF06920647063C
:1029FE00EE05B9085207BF056E08230497084D0867
:102A0E00070402086D051B05A6043A04DC078505BC
:102A1E009A058705CA07A3077A052304230423040E
:102A2E00230423042304000000005702B701E4012D
:102A3E00A4021502F3010702426C756550617272B1
:102A4E006F74205843502072756E6E696E67206FDA
:102A5E006E2041726475696E6F00426C75655061CF
:102A6E0072726F745F5843505F6F6E5F4172647520
:0E2A7E00696E6F006D61696E6C6F6F700000A5
:00000001FF
